:03000000020003F8
:0C000300787FE4F6D8FD75811B02004AEE
:1001460059434C40534353545045412E434F4D0061
:1001560051513A3532303238333736390048656CCA
:090166006C6F20776F726C64006D
:10022C001008417574686F723A4B696D6979616E2B
:05023C0067000118003D
:0B0268000000007F0B7EBEDEFEDFFC0E
:010273002268
:10021400AD07AC06D3ED9400EC9400400A120268DA
:08022400ED1D70F01C80ED22BD
:10008F00C2A47FDC7E051202141201BC7B007A0031
:10009F007908E4FD7F0212016F7BFF7A0179467DBB
:1000AF0001E4FF12016F7BFF7A0179567D02E4FFB5
:1000BF0012016F7BFF7A0179637D03E4FF12016FF9
:1000CF00C2CD7FDC7E05120214AB1805187D037FAD
:0600DF001112011880EC73
:0A02800000007F027E0FDEFEDFFCAF
:01028A002251
:1000E5007F381202427F057E001200FA7F38120225
:0500F500427F057E00C2
:0400FA00AD07AC069C
:1000FE00D3ED9400EC94004010E4FB1202800BBB95
:09010E000AF9ED1D70EA1C80E7FE
:0101170022C5
:10024200C2A5C2A7C2A68F8000D2A5C2A57F017E89
:04025200000200FAAC
:1001E000C2A5D2A7C2A68F80007F017E001200FAAE
:0B01F000D2A5C2A57F017E000200FA2C
:0C0274007F011202427F057E000200FAAA
:10019700A907ED7005E924808016BD0105E924C093
:1001A700800EBD0205E924948006BD0307E924D427
:0501B700FF12024222CC
:0A028B00AA03120197AF020201E07E
:10016F008B198A1A891B120197AB19AA1AA91B128C
:10017F0001FB6013051BE51B7002051A14F9120130
:08018F00FBFF1201E080E222F7
:10025600AA03120197EA75F00A84E5F02430FF023A
:0202660001E0B5
:10011800AA03120197EA75F064842430FF1201E003
:10012800EA75F00A8475F00A84E5F02430FF1201BC
:0E013800E0EA75F00A84E5F02430FF0201E0F1
:1001BC00E4F5A0D2A4C2951200E51200E57F081266
:1001CC0000F37F0F1200F37F0E1200F37F01120079
:0401DC00F3C2A522A3
:10000F0002008FE493A3F8E493A34003F68001F278
:10001F0008DFF48029E493A3F85407240CC8C333F2
:10002F00C4540F4420C8834004F456800146F6DFC1
:10003F00E4800B010204081020408090022CE47E23
:10004F00019360BCA3FF543F30E509541FFEE493B6
:10005F00A360010ECF54C025E060A840B8E493A37D
:10006F00FAE493A3F8E493A3C8C582C8CAC583CAA8
:10007F00F0A3C8C582C8CAC583CADFE9DEE780BE60
:0102410000BC
:1001FB00BB010689828A83E0225002E722BBFE0202
:09020B00E32289828A83E4932234
:00000001FF
