:030000000203E711
:0C03E700787FE4F6D8FD75812802042E12
:0C05290004220000000001270001260051
:0B0567000000007F0B7EBEDEFEDFFC0C
:010572002266
:1004FA00AD07AC06D3ED9400EC9400400A120567F0
:08050A00ED1D70F01C80ED22D4
:030589008F272297
:1001FF00E4F509C2C012053F120554D2AFAF097E14
:10020F00007B027D0312035AAF087E007B02E4FDE0
:10021F0012035AAF267E007B027D0612035AE47B3F
:10022F00F47A01F9F8AF25AE24AD23AC2212009970
:10023F00AC00AD01AE02AF03E4FBFAF9F8C3120153
:10024F002B700AAF26FE7B027D0612035AE47B3C1D
:10025F00FAF9F8AF25AE24AD23AC22120099AC0009
:10026F00AD01AE02AF03E4FBFAF9F8C312012B7034
:10027F00AD1202B78F08E508F460A37F0F1205894E
:10028F00E50824FE6007147006050980021509AF02
:10029F00097E007B027D0312035AAF087E007B02AA
:0802AF00E4FD12035A02022DC6
:03000B0002013CB3
:10013C00C0E0C0F0C083C082C0D075D000C000C089
:10014C0001C002C003C004C005C006C007C28CAF0A
:10015C0025AE24AD23AC22EF2401F525E43EF52495
:10016C00E43DF523E43CF522E5255401FFE4FEFDD6
:10017C00FCFBFAF9F8C312012B7003120473E47B35
:10018C00E87A03F9F8AF25AE24AD23AC221200991E
:10019C00AC00AD01AE02AF03E4FBFAF9F8C31201F7
:1001AC002B7004B2CD0526E47B01FAF9F8AF25AE2D
:1001BC0024AD23AC22120099AC00AD01AE02AF030A
:1001CC00E4FBFAF9F8C312012B700BE527D394006A
:1001DC004004B2C01527D28CD007D006D005D0046D
:1001EC00D003D002D001D000D0D0D082D083D0F0B8
:0301FC00D0E0321E
:10055400438E805389F0758ACD758CD4C28DD28C2C
:03056400D2A922F7
:0A057F003F065B4F666D7D077F6F3E
:0605350001210001180085
:10053F00E4F5937594FFF5957596FF7F087819E4A8
:04054F00F608DFFCCF
:010553002285
:10047300E4F595F596D295C3740795182419F8E613
:10048300F580AF187401A807088002C333D8FCFFB6
:10049300F5958F96AF187401A807088002C333D867
:1004A300FCF4F5A0C295AF180518EFD394074003E9
:0304B300E4F51855
:0104B6002223
:0204B7008F13A1
:1004B900E475170AF516F515F514E51370067F01AD
:1004C900FEFDFC22E513D39401401DAF17AE16AD16
:1004D90015AC14E47B0AFAF9F812000E8F178E1680
:1004E9008D158C14151380DCAF17AE16AD15AC1431
:0104F90022E0
:08035A008E0A8F0B8D0C8B0D38
:10036200E4F512F511F510F50FE50DD394055004DF
:10037200E50D7003750D05E4F50EE50EC3950D5000
:1003820063E50D14C3950EFF1204B78F128E118D03
:10039200108C0FAE0AAF0BE4FCFDAB12AA11A91030
:1003A200A80F120099E47B0AFAF9F8120099AC003E
:1003B200AD01AE02AF038F128E118D108C0FEF9034
:1003C200057F93FFE50C250E2419F8A607E50C25F9
:1003D2000EFFE433FEC3EF9407EE64809480500472
:0403E200050E8096EE
:0103E60022F4
:03053B0001280094
:0B0573000000007F0B7EBEDEFEDFFC00
:01057E00225A
:1002B7007DFFD29585A00B85800AE4F58075950FA3
:1002C70075960F75A0F0E5A0F4FFC4540FFC606F9E
:1002D700120573E5A0F4C4540F6C70617595F07541
:1002E70096F075A00FE5A0F4540FF9605224FE6054
:1002F7001024FE601024FC60102407700E79038020
:100307000A7902800679018002E4F9EC24FE601084
:1003170024FE601024FC60102407700E7C03800A02
:100327007C0280067C018002E4FCEC25E025E029C4
:10033700FD652860048D28800A7DFF800680007D8A
:10034700FF8D28E4F595F596850A80850BA0C29563
:02035700AF05F0
:010359002281
:10051200759850438E40538EFE53890F758BE87544
:070522008DFFC2ABD28E2257
:080003008F993099FDC299228A
:1003F3000201FFE493A3F8E493A34003F68001F220
:1004030008DFF48029E493A3F85407240CC8C3330A
:10041300C4540F4420C8834004F456800146F6DFD9
:10042300E4800B0102040810204080900529E47E3B
:10043300019360BCA3FF543F30E509541FFEE493CE
:10044300A360010ECF54C025E060A840B8E493A395
:10045300FAE493A3F8E493A3C8C582C8CAC583CAC0
:10046300F0A3C8C582C8CAC583CADFE9DEE780BE78
:01053E0000BC
:10000E00E88FF0A4CC8BF0A42CFCE98EF0A42CFC91
:10001E008AF0EDA42CFCEA8EF0A4CDA8F08BF0A40F
:10002E002DCC3825F0FDE98FF0A42CCD35F0FCEB6E
:10003E008EF0A4FEA9F0EB8FF0A4CFC5F02ECD3933
:0F004E00FEE43CFCEAA42DCE35F0FDE43CFC22A0
:10005D0075F008758200EF2FFFEE33FECD33CDCC5A
:10006D0033CCC58233C5829BED9AEC99E5829840DD
:10007D000CF582EE9BFEED9AFDEC99FC0FD5F0D6BA
:10008D00E4CEFBE4CDFAE4CCF9A88222B800C1B9E4
:10009D000059BA002DEC8BF084CFCECDFCE5F0CB22
:1000AD00F97818EF2FFFEE33FEED33FDEC33FCEB5B
:1000BD0033FB10D703994004EB99FB0FD8E5E4F916
:1000CD00FA227818EF2FFFEE33FEED33FDEC33FC03
:1000DD00C933C910D7059BE99A4007EC9BFCE99AF7
:1000ED00F90FD8E0E4C9FAE4CCFB2275F010EF2F3C
:1000FD00FFEE33FEED33FDCC33CCC833C810D7073C
:10010D009BEC9AE899400AED9BFDEC9AFCE899F876
:0E011D000FD5F0DAE4CDFBE4CCFAE4C8F92209
:10012B00EB9FF5F0EA9E42F0E99D42F0E89C45F02A
:01013B0022A1
:00000001FF
