:0300000002027C7D
:0C027C00787FE4F6D8FD7581250202C3EE
:06043600041F000000009D
:0B042A000000007F0B7EBEDEFEDFFC4A
:0104350022A4
:1003EA00AD07AC06D3ED9400EC9400400A12042A3F
:0803FA00ED1D70F01C80ED22E6
:10030800120402AF247E007B02E4FD1201EFAF2548
:100318007E007B027D031201EFAF237E007B027D0E
:10032800061201EF751940751C40C2C0120417D29D
:10033800AFAF247E007B02E4FD1201EFAF257E0003
:100348007B027D031201EFAF237E007B027D061244
:0B03580001EF7FE87E031203EA80D66D
:03000B0002013CB3
:10013C00C0E0C0F0C083C082C0D075D000C000C089
:0D014C0001C002C003C004C005C006C0070A
:10015900C28CE5222401F522E43521F521E435207C
:10016900F520E4351FF51FE5225401FFE4FEFDFCEF
:10017900FBFAF9F8C312012B7003120363E47BE85D
:100189007A03F9F8AF22AE21AD20AC1F120099AC69
:1001990000AD01AE02AF03E4FBFAF9F8C312012B7B
:1001A9007027AF230523EFD3943B401D752300AF80
:1001B900250525EFD3943B4010752500AF24052470
:0B01C900EFD3943B4003752400D28C60
:1001D400D007D006D005D004D003D002D001D0007F
:0B01E400D0D0D082D083D0F0D0E03229
:10041700438E805389F0758ACD758CD4C28DD28C6A
:03042700D2A92235
:0A0440003F065B4F666D7D077F6F7E
:03043C00011600A6
:10040200E4F5937594FFF5957596FF7F087817E4E8
:04041200F608DFFC0D
:0104160022C3
:10036300E4F595F596D295C3740795162417F8E628
:10037300F580AF167401A807088002C333D8FCFFC9
:10038300F5958F96AF167401A807088002C333D87A
:10039300FCF4F5A0C295AF160516EFD394074003FE
:0303A300E4F51668
:0103A6002234
:0203A7008F11B4
:1003A900E475150AF514F513F512E51170067F01C8
:1003B900FEFDFC22E511D39401401DAF15AE14AD2D
:1003C90013AC12E47B0AFAF9F812000E8F158E1499
:1003D9008D138C12151180DCAF15AE14AD13AC1250
:0103E90022F1
:0801EF008E088F098D0A8B0BAD
:1001F700E4F510F50FF50EF50DE50BD39405500456
:10020700E50B7003750B05E4F50CE50CC3950B5076
:1002170063E50B14C3950CFF1203A78F108E0F8D88
:100227000E8C0DAE08AF09E4FCFDAB10AA0FA90EAA
:10023700A80D120099E47B0AFAF9F8120099AC00AC
:10024700AD01AE02AF038F108E0F8D0E8C0DEF90A8
:10025700044093FFE50A250C2417F8A607E50A25AD
:100267000CFFE433FEC3EF9407EE648094805004E0
:04027700050C80965C
:01027B002260
:10028800020308E493A3F8E493A34003F68001F281
:1002980008DFF48029E493A3F85407240CC8C33377
:1002A800C4540F4420C8834004F456800146F6DF46
:1002B800E4800B0102040810204080900436E47E9C
:1002C800019360BCA3FF543F30E509541FFEE4933B
:1002D800A360010ECF54C025E060A840B8E493A302
:1002E800FAE493A3F8E493A3C8C582C8CAC583CA2D
:1002F800F0A3C8C582C8CAC583CADFE9DEE780BEE5
:01043F0000BC
:10000E00E88FF0A4CC8BF0A42CFCE98EF0A42CFC91
:10001E008AF0EDA42CFCEA8EF0A4CDA8F08BF0A40F
:10002E002DCC3825F0FDE98FF0A42CCD35F0FCEB6E
:10003E008EF0A4FEA9F0EB8FF0A4CFC5F02ECD3933
:0F004E00FEE43CFCEAA42DCE35F0FDE43CFC22A0
:10005D0075F008758200EF2FFFEE33FECD33CDCC5A
:10006D0033CCC58233C5829BED9AEC99E5829840DD
:10007D000CF582EE9BFEED9AFDEC99FC0FD5F0D6BA
:10008D00E4CEFBE4CDFAE4CCF9A88222B800C1B9E4
:10009D000059BA002DEC8BF084CFCECDFCE5F0CB22
:1000AD00F97818EF2FFFEE33FEED33FDEC33FCEB5B
:1000BD0033FB10D703994004EB99FB0FD8E5E4F916
:1000CD00FA227818EF2FFFEE33FEED33FDEC33FC03
:1000DD00C933C910D7059BE99A4007EC9BFCE99AF7
:1000ED00F90FD8E0E4C9FAE4CCFB2275F010EF2F3C
:1000FD00FFEE33FEED33FDCC33CCC833C810D7073C
:10010D009BEC9AE899400AED9BFDEC9AFCE899F876
:0E011D000FD5F0DAE4CDFBE4CCFAE4C8F92209
:10012B00EB9FF5F0EA9E42F0E99D42F0E89C45F02A
:01013B0022A1
:00000001FF
