:0300000002031FD9
:0C031F00787FE4F6D8FD75812A020366A1
:06050800042100000000C8
:0B0515000000007F0B7EBEDEFEDFFC5E
:0105200022B8
:1004B100AD07AC06D3ED9400EC9400400A1205158B
:0804C100ED1D70F01C80ED221E
:1003AB00C2C01204E01204C97FF47E011204B11220
:1003BB0005371204F5D2AF7F0412047A8E088F0929
:1003CB001200037B04E4FDAF09AE08120292D3E5E1
:1003DB000994C8E50894004004C2CD8002D2CD7FB9
:0803EB00C87E001204B180CFAE
:03000B0002013CB3
:10013C00C0E0C0F0C083C082C0D075D000C000C089
:0D014C0001C002C003C004C005C006C0070A
:10015900C28CE5242401F524E43523F523E4352272
:10016900F522E43521F521E5245401FFE4FEFDFCE7
:10017900FBFAF9F8C312012B70031203F3E47BE8CD
:100189007A03F9F8AF24AE23AD22AC21120099AC61
:1001990000AD01AE02AF03E4FBFAF9F8C312012B7B
:1001A9007027AF250525EFD3943B401D752500AF7A
:1001B900270527EFD3943B4010752700AF26052666
:0B01C900EFD3943B4003752600D28C5E
:1001D400D007D006D005D004D003D002D001D0007F
:0B01E400D0D0D082D083D0F0D0E03229
:1004F500438E805389F0758ACD758CD4C28DD28C8C
:03050500D2A92256
:03050E00012A00BF
:0B0521000000007F0B7EBEDEFEDFFC52
:01052C0022AC
:1001EF007DFFD29585A029858028E4F58075950F30
:1001FF0075960F75A0F0E5A0F4FFC4540FFC606F67
:10020F00120521E5A0F4C4540F6C70617595F0755B
:10021F0096F075A00FE5A0F4540FF9605224FE601C
:10022F001024FE601024FC60102407700E790380E8
:10023F000A7902800679018002E4F9EC24FE60104D
:10024F0024FE601024FC60102407700E7C03800ACB
:10025F007C0280067C018002E4FCEC25E025E0298D
:10026F00FD652A60048D2A800A7DFF800680007D4F
:10027F00FF8D2AE4F595F5968528808529A0C295EE
:02028F00AF05B9
:01029100224A
:0A052D003F065B4F666D7D077F6F90
:03051100011800CE
:1004E000E4F5937594FFF5957596FF7F087819E408
:0404F000F608DFFC2F
:0104F40022E5
:1003F300E4F595F596D295C3740795182419F8E694
:10040300F580AF187401A807088002C333D8FCFF36
:10041300F5958F96AF187401A807088002C333D8E7
:10042300FCF4F5A0C295AF180518EFD39407400369
:03043300E4F518D5
:0104360022A3
:020437008F1321
:10043900E475170AF516F515F514E51370067F012D
:10044900FEFDFC22E513D39401401DAF17AE16AD96
:1004590015AC14E47B0AFAF9F812000E8F178E1600
:100469008D158C14151380DCAF17AE16AD15AC14B1
:010479002260
:080292008E0A8F0B8D0C8B0D01
:10029A00E4F512F511F510F50FE50DD394055004A8
:1002AA00E50D7003750D05E4F50EE50EC3950D50C9
:1002BA0063E50D14C3950EFF1204378F128E118D4C
:1002CA00108C0FAE0AAF0BE4FCFDAB12AA11A910F9
:1002DA00A80F120099E47B0AFAF9F8120099AC0007
:1002EA00AD01AE02AF038F128E118D108C0FEF90FD
:1002FA00052D93FFE50C250E2419F8A607E50C2514
:10030A000EFFE433FEC3EF9407EE6480948050043A
:04031A00050E8096B6
:01031E0022BC
:09053700E4F59DF5BD75BC8422BC
:10047A007401A807088002C333D8FCF59D53BCF069
:10048A00EF5407440842BCE5BC30E4FBAFBD7E0034
:10049A00EF7802C333CE33CED8F9FFE5BE5403FD5D
:0604AA00EF4DFF53BCEF13
:0104B0002229
:1004C900759850438E40538EFE53890F758BE8758E
:0704D9008DFFC2ABD28E22A1
:080003008F993099FDC299228A
:10032B000203ABE493A3F8E493A34003F68001F23A
:10033B0008DFF48029E493A3F85407240CC8C333D3
:10034B00C4540F4420C8834004F456800146F6DFA2
:10035B00E4800B0102040810204080900508E47E25
:10036B00019360BCA3FF543F30E509541FFEE49397
:10037B00A360010ECF54C025E060A840B8E493A35E
:10038B00FAE493A3F8E493A3C8C582C8CAC583CA89
:10039B00F0A3C8C582C8CAC583CADFE9DEE780BE41
:0105140000E6
:10000E00E88FF0A4CC8BF0A42CFCE98EF0A42CFC91
:10001E008AF0EDA42CFCEA8EF0A4CDA8F08BF0A40F
:10002E002DCC3825F0FDE98FF0A42CCD35F0FCEB6E
:10003E008EF0A4FEA9F0EB8FF0A4CFC5F02ECD3933
:0F004E00FEE43CFCEAA42DCE35F0FDE43CFC22A0
:10005D0075F008758200EF2FFFEE33FECD33CDCC5A
:10006D0033CCC58233C5829BED9AEC99E5829840DD
:10007D000CF582EE9BFEED9AFDEC99FC0FD5F0D6BA
:10008D00E4CEFBE4CDFAE4CCF9A88222B800C1B9E4
:10009D000059BA002DEC8BF084CFCECDFCE5F0CB22
:1000AD00F97818EF2FFFEE33FEED33FDEC33FCEB5B
:1000BD0033FB10D703994004EB99FB0FD8E5E4F916
:1000CD00FA227818EF2FFFEE33FEED33FDEC33FC03
:1000DD00C933C910D7059BE99A4007EC9BFCE99AF7
:1000ED00F90FD8E0E4C9FAE4CCFB2275F010EF2F3C
:1000FD00FFEE33FEED33FDCC33CCC833C810D7073C
:10010D009BEC9AE899400AED9BFDEC9AFCE899F876
:0E011D000FD5F0DAE4CDFBE4CCFAE4C8F92209
:10012B00EB9FF5F0EA9E42F0E99D42F0E89C45F02A
:01013B0022A1
:00000001FF
