:030000000201B04A
:0C01B000787FE4F6D8FD75811E0201F78F
:0702F700C288D2A8D2AF2299
:030003000202FEF8
:0602FE00B2CD20B2FD327A
:1002C3001202D87B02E4FD7F34FE1201231202F7EF
:0502D30012023C80FB5B
:0A02ED003F065B4F666D7D077F6FD3
:03030400011600DF
:1002D800E4F5937594FFF5957596FF7F087817E414
:0402E800F608DFFC39
:0102EC0022EF
:10023C00E4F595F596D295C3740795162417F8E650
:10024C00F580AF167401A807088002C333D8FCFFF1
:10025C00F5958F96AF167401A807088002C333D8A2
:10026C00FCF4F5A0C295AF160516EFD39407400326
:03027C00E4F51690
:01027F00225C
:020280008F11DC
:10028200E475150AF514F513F512E51170067F01F0
:10029200FEFDFC22E511D39401401DAF15AE14AD55
:1002A20013AC12E47B0AFAF9F81200068F158E14C9
:1002B2008D138C12151180DCAF15AE14AD13AC1278
:0102C2002219
:080123008E088F098D0A8B0B79
:10012B00E4F510F50FF50EF50DE50BD39405500422
:10013B00E50B7003750B05E4F50CE50CC3950B5043
:10014B0063E50B14C3950CFF1202808F108E0F8D7D
:10015B000E8C0DAE08AF09E4FCFDAB10AA0FA90E77
:10016B00A80D120091E47B0AFAF9F8120091AC0089
:10017B00AD01AE02AF038F108E0F8D0E8C0DEF9075
:10018B0002ED93FFE50A250C2417F8A607E50A25CF
:10019B000CFFE433FEC3EF9407EE648094805004AD
:0401AB00050C809629
:0101AF00222D
:1001BC000202C3E493A3F8E493A34003F68001F294
:1001CC0008DFF48029E493A3F85407240CC8C33344
:1001DC00C4540F4420C8834004F456800146F6DF13
:1001EC00E4800B0102040810204080900304E47E9C
:1001FC00019360BCA3FF543F30E509541FFEE49308
:10020C00A360010ECF54C025E060A840B8E493A3CE
:10021C00FAE493A3F8E493A3C8C582C8CAC583CAF9
:10022C00F0A3C8C582C8CAC583CADFE9DEE780BEB1
:0103070000F5
:10000600E88FF0A4CC8BF0A42CFCE98EF0A42CFC99
:100016008AF0EDA42CFCEA8EF0A4CDA8F08BF0A417
:100026002DCC3825F0FDE98FF0A42CCD35F0FCEB76
:100036008EF0A4FEA9F0EB8FF0A4CFC5F02ECD393B
:0F004600FEE43CFCEAA42DCE35F0FDE43CFC22A8
:1000550075F008758200EF2FFFEE33FECD33CDCC62
:1000650033CCC58233C5829BED9AEC99E5829840E5
:100075000CF582EE9BFEED9AFDEC99FC0FD5F0D6C2
:10008500E4CEFBE4CDFAE4CCF9A88222B800C1B9EC
:100095000059BA002DEC8BF084CFCECDFCE5F0CB2A
:1000A500F97818EF2FFFEE33FEED33FDEC33FCEB63
:1000B50033FB10D703994004EB99FB0FD8E5E4F91E
:1000C500FA227818EF2FFFEE33FEED33FDEC33FC0B
:1000D500C933C910D7059BE99A4007EC9BFCE99AFF
:1000E500F90FD8E0E4C9FAE4CCFB2275F010EF2F44
:1000F500FFEE33FEED33FDCC33CCC833C810D70744
:100105009BEC9AE899400AED9BFDEC9AFCE899F87E
:0E0115000FD5F0DAE4CDFBE4CCFAE4C8F92211
:00000001FF
