:03000000020003F8
:0C000300787FE4F6D8FD75811002004AF9
:0A00FB003F065B4F666D7D077F6FC7
:03010500010800EE
:1000DC00D3EF9400EE94004015E4FCFD0DBD00013F
:0E00EC000CBC03F8BDE8F5EF1F70E51E80E2C6
:0100FA0022E3
:10008F0075A0FF74092508F8E6F580AF087401A87C
:10009F0007088002C333D8FCF4F5A0AF080508EFBA
:0800AF00D394074003E4F508B7
:0100B7002226
:1000B800E4FFEF9000FB93FE74092FF8A6060FBF2C
:1000C80008F0E4F5937594FFF5957596FFC29512BF
:0400D800008F80FB1A
:10000F000200B8E493A3F8E493A34003F68001F24F
:10001F0008DFF48029E493A3F85407240CC8C333F2
:10002F00C4540F4420C8834004F456800146F6DFC1
:10003F00E4800B0102040810204080900105E47E4B
:10004F00019360BCA3FF543F30E509541FFEE493B6
:10005F00A360010ECF54C025E060A840B8E493A37D
:10006F00FAE493A3F8E493A3C8C582C8CAC583CAA8
:10007F00F0A3C8C582C8CAC583CADFE9DEE780BE60
:0101080000F6
:00000001FF
