:0300000002013EBC
:0C013E00787FE4F6D8FD75810C02008C7F
:1000CC00D4D4BED49FA9D4D4BED48E9FD4D46A7EAB
:1000DC009FA9BE77777E9F8E9F0009030C0C0C188E
:1000EC0009030C0C0C1809030C0C0C0C0C09030C5C
:0400FC000C0C1800D0
:10010000D3EF9400EE94004015E4FDFC0DBD00011A
:0E0110000CBC03F8BDE8F5EF1F70E51E80E2A1
:01011E0022BE
:10011F00D3EF9400EE94004015E4FDFC0DBD0001FB
:0E012F000CBC03F8BDE8F5EF1F70E51E80E282
:01013D00229F
:10000300E4F9FBFA74E62BF58274003AF583E49382
:10001300700E74CC2BF58274003AF583E49360661A
:10002300E4F50BF50C74E62BF58274003AF583E4E2
:100033009375F014A4FFC3E50C9FE50B95F05037BF
:10004300B2C0B2CDE4FFFE74CC2BF58274003AF556
:1000530083E49375F00384FDC3EF9DEE9400500D8C
:10006300E4F909B918FC0FBF00010E80DA050CE5AD
:100073000C70B2050B80AE7F147E001201000BBB27
:0800830000010A020007C2C0DF
:01008B002252
:10008C00E4F508F509F50A75B401F5B3D2CD7FB8DE
:10009C007E0B120100E4F508F509B2C07F017E0069
:1000AC001201000509E50970020508C394E8E5088A
:1000BC00940340E67FB87E0B12010012000380D53A
:00000001FF
