:030000000201AD4D
:0C01AD00787FE4F6D8FD75811E0201F495
:1002D700D3EF9400EE94004015E4FCFD0DBD000142
:0E02E7000CBC03F8BDE8F5EF1F70E51E80E2C9
:0102F50022E6
:10027C001202F67B02E4FD7F06FE1201207B027D5A
:10028C00037F1A7E001201207B027D067F3B7E00DD
:0E029C00120120751940751C401202AA80FB49
:0A030B003F065B4F666D7D077F6FB4
:03031500011600CE
:1002F600E4F5937594FFF5957596FF7F087817E4F6
:04030600F608DFFC1A
:01030A0022D0
:1002AA00D295C3740795162417F8E6F580AF16742D
:1002BA0001A807088002C333D8FCF4F5A0C295AFA1
:0C02CA00160516EFD394074003E4F51668
:0102D6002205
:020239008F1123
:10023B00E475150AF514F513F512E51170067F0137
:10024B00FEFDFC22E511D39401401DAF15AE14AD9C
:10025B0013AC12E47B0AFAF9F81200038F158E1413
:10026B008D138C12151180DCAF15AE14AD13AC12BF
:01027B002260
:080120008E088F098D0A8B0B7C
:10012800E4F510F50FF50EF50DE50BD39405500425
:10013800E50B7003750B05E4F50CE50CC3950B5046
:1001480063E50B14C3950CFF1202398F108E0F8DC7
:100158000E8C0DAE08AF09E4FCFDAB10AA0FA90E7A
:10016800A80D12008EE47B0AFAF9F812008EAC0092
:10017800AD01AE02AF038F108E0F8D0E8C0DEF9078
:10018800030B93FFE50A250C2417F8A607E50A25B3
:100198000CFFE433FEC3EF9407EE648094805004B0
:0401A800050C80962C
:0101AC002230
:1001B90002027CE493A3F8E493A34003F68001F2DE
:1001C90008DFF48029E493A3F85407240CC8C33347
:1001D900C4540F4420C8834004F456800146F6DF16
:1001E900E4800B0102040810204080900315E47E8E
:1001F900019360BCA3FF543F30E509541FFEE4930B
:10020900A360010ECF54C025E060A840B8E493A3D1
:10021900FAE493A3F8E493A3C8C582C8CAC583CAFC
:10022900F0A3C8C582C8CAC583CADFE9DEE780BEB4
:0103180000E4
:10000300E88FF0A4CC8BF0A42CFCE98EF0A42CFC9C
:100013008AF0EDA42CFCEA8EF0A4CDA8F08BF0A41A
:100023002DCC3825F0FDE98FF0A42CCD35F0FCEB79
:100033008EF0A4FEA9F0EB8FF0A4CFC5F02ECD393E
:0F004300FEE43CFCEAA42DCE35F0FDE43CFC22AB
:1000520075F008758200EF2FFFEE33FECD33CDCC65
:1000620033CCC58233C5829BED9AEC99E5829840E8
:100072000CF582EE9BFEED9AFDEC99FC0FD5F0D6C5
:10008200E4CEFBE4CDFAE4CCF9A88222B800C1B9EF
:100092000059BA002DEC8BF084CFCECDFCE5F0CB2D
:1000A200F97818EF2FFFEE33FEED33FDEC33FCEB66
:1000B20033FB10D703994004EB99FB0FD8E5E4F921
:1000C200FA227818EF2FFFEE33FEED33FDEC33FC0E
:1000D200C933C910D7059BE99A4007EC9BFCE99A02
:1000E200F90FD8E0E4C9FAE4CCFB2275F010EF2F47
:1000F200FFEE33FEED33FDCC33CCC833C810D70747
:100102009BEC9AE899400AED9BFDEC9AFCE899F881
:0E0112000FD5F0DAE4CDFBE4CCFAE4C8F92214
:00000001FF
