:030000000201E218
:0C01E200787FE4F6D8FD7581290202291F
:0D04240048656C6C6F2053544335310A005D
:0C041100041B00000000012000011F007F
:0B0431000000007F0B7EBEDEFEDFFC43
:01043C00229D
:1003B900AD07AC06D3ED9400EC9400400A12043169
:0803C900ED1D70F01C80ED2217
:030447008F2022E1
:1003D100E4F526C2C01203FE12039ED2AF7BFF7A60
:0803E10004792412037980FE67
:03000B0002026E80
:10026E00C0E0C0F0C083C082C0D075D000C000C056
:10027E0001C002C003C004C005C006C007C28CAFD7
:10028E001EAE1DAD1CAC1BEF2401F51EE43EF51D8C
:10029E00E43DF51CE43CF51BE47B01FAF9F8AF1ED6
:1002AE00AE1DAD1CAC1B1200B2AC00AD01AE02AF68
:1002BE0003E4FBFAF9F8C3120144700BE520D39462
:1002CE00004004B2C01520D28CD007D006D005D085
:1002DE0004D003D002D001D000D0D0D082D083D0B1
:0402EE00F0D0E0323A
:1003FE00438E805389F0758ACD758CD4C28DD28C84
:03040E00D2A9224E
:0A043D003F065B4F666D7D077F6F81
:06041D00011100010800BE
:1003E900E4F5937594FFF5957596FF7F087809E410
:0403F900F608DFFC27
:0103FD0022DD
:1002F200E4F595F596D295C3740795082409F8E6B6
:10030200F580AF087401A807088002C333D8FCFF48
:10031200F5958F96AF087401A807088002C333D8F9
:10032200FCF4F5A0C295AF080508EFD3940740038B
:03033200E4F508E7
:0103350022A5
:020336008F2115
:10033800E475250AF524F523F522E52170067F01E9
:10034800FEFDFC22E521D39401401DAF25AE24AD6E
:1003580023AC22E47B0AFAF9F81200278F258E24B1
:100368008D238C22152180DCAF25AE24AD23AC2251
:010378002262
:080155008E128F138D148B151F
:10015D00E4F51AF519F518F517E515D394055004BE
:10016D00E5157003751505E4F516E516C3951550DF
:10017D0063E51514C39516FF1203368F1A8E198D6C
:10018D00188C17AE12AF13E4FCFDAB1AAA19A918FF
:10019D00A8171200B2E47B0AFAF9F81200B2AC000B
:1001AD00AD01AE02AF038F1A8E198D188C17EF901B
:1001BD00043D93FFE51425162409F8A607E514253B
:1001CD0016FFE433FEC3EF9407EE64809480500471
:0401DD0005168096ED
:0101E10022FB
:10039E00759850438E40538EFE53890F758BE875BA
:0B03AE008DFFC2ABD28ED2ACD2AF22CA
:080003008F993099FDC299228A
:100379008B278A288929AB27AA28A92912000E6068
:10038900130529E5297002052814F912000EFF1238
:05039900000380E222D8
:1001EE000203D1E493A3F8E493A34003F68001F253
:1001FE0008DFF48029E493A3F85407240CC8C33312
:10020E00C4540F4420C8834004F456800146F6DFE0
:10021E00E4800B0102040810204080900411E47E5B
:10022E00019360BCA3FF543F30E509541FFEE493D5
:10023E00A360010ECF54C025E060A840B8E493A39C
:10024E00FAE493A3F8E493A3C8C582C8CAC583CAC7
:10025E00F0A3C8C582C8CAC583CADFE9DEE780BE7F
:0104230000D8
:10000E00BB010689828A83E0225002E722BBFE02F0
:09001E00E32289828A83E4932223
:10002700E88FF0A4CC8BF0A42CFCE98EF0A42CFC78
:100037008AF0EDA42CFCEA8EF0A4CDA8F08BF0A4F6
:100047002DCC3825F0FDE98FF0A42CCD35F0FCEB55
:100057008EF0A4FEA9F0EB8FF0A4CFC5F02ECD391A
:0F006700FEE43CFCEAA42DCE35F0FDE43CFC2287
:1000760075F008758200EF2FFFEE33FECD33CDCC41
:1000860033CCC58233C5829BED9AEC99E5829840C4
:100096000CF582EE9BFEED9AFDEC99FC0FD5F0D6A1
:1000A600E4CEFBE4CDFAE4CCF9A88222B800C1B9CB
:1000B6000059BA002DEC8BF084CFCECDFCE5F0CB09
:1000C600F97818EF2FFFEE33FEED33FDEC33FCEB42
:1000D60033FB10D703994004EB99FB0FD8E5E4F9FD
:1000E600FA227818EF2FFFEE33FEED33FDEC33FCEA
:1000F600C933C910D7059BE99A4007EC9BFCE99ADE
:10010600F90FD8E0E4C9FAE4CCFB2275F010EF2F22
:10011600FFEE33FEED33FDCC33CCC833C810D70722
:100126009BEC9AE899400AED9BFDEC9AFCE899F85D
:0E0136000FD5F0DAE4CDFBE4CCFAE4C8F922F0
:10014400EB9FF5F0EA9E42F0E99D42F0E89C45F011
:010154002288
:00000001FF
